:100000000C942A000C94D7000C9447000C944700E1
:100010000C9485090C9447000C9447000C944700FD
:100020000C9447000C9447000C9447000C94470034
:100030000C9447000C9447000C9447000C94470024
:100040000C9447000C9447000C9447000C94470014
:100050000C94470011241FBECFE5D4E0DEBFCDBF16
:1000600014E0A0E6B0E0EEE9F8E102C005900D92E0
:10007000AE32B107D9F724E0AEE2B4E001C01D9280
:10008000AA33B207E1F70E94C7040C944D0C0C94FC
:10009000000080E487B986E886B98AB38E7F8ABB80
:1000A000089597B1907F8F70892B87B986B180644E
:1000B00086B9349BFECF86B1806186B984B195B193
:1000C000089580E00E945100BC0180E090E00E9411
:1000D000CA0A28E431EE4AEF5EE30E94580B0E9400
:1000E000940ACB01089581E00E941E0280E790E00F
:1000F0000E949C028AE00E94E3098AE00E94E309D0
:1001000080E790E00E94E70980E00E945100BC0176
:1001100080E090E00E94CA0A28E431EE4AEF5EE3F4
:100120000E94580B0E94940ACB010E94BA0280E000
:100130000E945100BC0180E090E00E94CA0A28E4BD
:1001400031EE4AEF5EE30E94580B0E94940ACB0105
:100150000E94050A86E790E00E949C0289E790E0F1
:100160000E94E7092FEF80E792E021508040904005
:10017000E1F700C00000089582B3846082BB7894E8
:1001800081B38B7F81BB8BB780648BBF85B7816068
:1001900085BF089581B3846081BB82B38B7F82BBAE
:1001A0008BB78F7B8BBF85B78E7F85BF08951F92DE
:1001B0000F920FB60F9211242F933F934F935F939B
:1001C0006F937F938F939F93AF93BF93EF93FF931F
:1001D00081E00E941E0280E90E941E028CE790E0EE
:1001E0000E949C028AE00E94E3098AE00E94E309DF
:1001F00084E890E00E94E70980ED0E941E028EE8EC
:1002000090E00E949C028AE00E94E3098DE990E060
:100210000E94E7090E94970680913104813029F4F9
:100220000E94D7018093300404C00E94DA098093B1
:10023000300480913004833451F0813341F08233B3
:1002400031F0833321F0843311F0853319F783348F
:1002500019F40E94CA0095C08133E1F484E190E072
:100260000E94AB0680E90E941E028DEA90E00E9487
:100270009C028AE00E94E3098DEA90E00E94E7096F
:100280002FEF81EE94E0215080409040E1F700C0D4
:10029000000077C08233E1F488E290E00E94AB0670
:1002A00080E90E941E0282EC90E00E949C028AE09B
:1002B0000E94E30982EC90E00E94E7092FEF81EEB3
:1002C00094E0215080409040E1F700C0000059C008
:1002D0008333E1F48CE390E00E94AB0680E90E9456
:1002E0001E0287ED90E00E949C028AE00E94E309D2
:1002F00087ED90E00E94E7092FEF81EE94E0215016
:1003000080409040E1F700C000003BC08433E1F43E
:1003100080E590E00E94AB0680E90E941E028CEE10
:1003200090E00E949C028AE00E94E3098CEE90E03B
:100330000E94E7092FEF81EE94E021508040904029
:10034000E1F700C000001DC08533D9F484E690E0D9
:100350000E94AB0680E90E941E0281E091E00E94AB
:100360009C028AE00E94E30981E091E00E94E70993
:100370002FEF81EE94E0215080409040E1F700C0E3
:100380000000FF91EF91BF91AF919F918F917F916D
:100390006F915F914F913F912F910F900FBE0F90F2
:1003A0001F9018958FE087BB8FEF88BB0895A0E062
:1003B000B0E0E5E73DC098B361E070E00A2E02C00E
:1003C000660F771F0A94E2F7862F8095982398BBD3
:1003D00024E030E026C046B350E0022E02C055951E
:1003E00047950A94E2F7842F817040FF0AC017C036
:1003F00086B390E0022E02C0959587950A94E2F7A5
:1004000081708823A9F3FD01EE0FFF1FEE0FFF1F80
:10041000E05AFF4FC9010497E80FF91FE0812F5FF1
:100420003F4F28303105BCF288B3682B68BB11966A
:10043000A430B1050CF4BFCF8E2F089595B3282FAB
:10044000207F9F70922B95BB95B39E7F95BB95B3F4
:10045000926095BBEFECF7E03197F1F700C0000038
:1004600095B39D7F95BBEFE1FEE43197F1F700C0B6
:100470000000F0E18F9FC001112495B39F70892B7C
:1004800085BB85B3826085BB8FEC97E00197F1F760
:1004900000C0000085B38D7F85BB089595B3282FDC
:1004A000207F9F70922B95BB95B3916095BB95B3C0
:1004B000926095BBEFECF7E03197F1F700C00000D8
:1004C00095B39D7F95BBEFE1FEE43197F1F700C056
:1004D0000000F0E18F9FC001112495B39F70892B1C
:1004E00085BB85B3826085BB8FEC97E00197F1F700
:1004F00000C0000085B38D7F85BB08958FEF84BB5E
:100500008FE39CE90197F1F700C0000082E00E94B0
:100510001E0288E20E941E028EE00E941E0286E0F9
:100520000E941E0281E00E941E028FE99FE0019757
:10053000F1F700C0000008950F931F93CF93DF934E
:100540008C01C0E0D0E007C0F801EC0FFD1F8081F6
:100550000E944E022196F80101900020E9F73197A0
:10056000E01BF10BCE17DF0778F3DF91CF911F91DE
:100570000F910895CF93DF93CDB7DEB761970FB694
:10058000F894DEBF0FBECDBF4AE0BE016F5F7F4F64
:100590000E94180CCE0101960E949C0261960FB633
:1005A000F894DEBF0FBECDBFDF91CF91089588E6EE
:1005B000809334048AB3886F8ABB8BB3886F8BBBFC
:1005C00008950E949C09089585369105C0F4BC01E8
:1005D000990F880B990B0E94CC0A20E030E048EC80
:1005E00052E40E94220A20E030E04FE753E40E94E8
:1005F000580B0E949B0A862F0E94A309089580E051
:100600000E94A30908950E94E10280913304853776
:1006100009F056C081E00E941E028AE00E94E309B0
:1006200080E80E941E0286E191E00E949C028AE01E
:100630000E94E30987E291E00E94E70980EC0E94B2
:100640001E028CE391E00E949C0287EC0E941E0235
:100650008AE491E00E949C028AE00E94E30981E41E
:1006600091E00E94E70980E90E941E028FE491E078
:100670000E949C0287E90E941E028DE591E00E9483
:100680009C028AE00E94E30984E591E00E94E70968
:1006900080ED0E941E0282E691E00E949C0287ED9E
:1006A0000E941E0280E791E00E949C028AE00E9464
:1006B000E30987E691E00E94E7098AE00E94E309E6
:1006C0000E94970680913104813029F40E94D7015D
:1006D0008093330404C00E94DA098093330480912C
:1006E000330490ED980F9A3060F0833451F08F32DC
:1006F00041F0883731F08D3221F08B3211F08D339B
:10070000F9F6833409F442C1803321F49BB388EFB6
:1007100089278BBB80913304863319F498E6909334
:100720003404883319F49CE690933404873319F425
:100730009DE690933404893319F48FE68093340452
:1007400081E00E941E0280E80E941E0286E191E084
:100750000E949C028AE00E94E30983E791E00E94E4
:10076000E70980913304813319F48BB380588BBB34
:1007700080913304823321F49BB380E489278BBBBF
:1007800080913304833321F49BB380E289278BBBB0
:1007900080913304843321F49BB380E189278BBBA0
:1007A00080913304853321F49BB388E089278BBB88
:1007B000CF9B0FC080EC0E941E028CE391E00E9450
:1007C0009C028AE00E94E3098CE391E00E94E70921
:1007D0000EC080EC0E941E028AE791E00E949C02FB
:1007E0008AE00E94E3098AE791E00E94E709CE9B34
:1007F0000CC087EC0E941E028AE491E00E949C02D9
:1008000085E491E00E94E7090BC087EC0E941E027C
:1008100085E891E00E949C0280E891E00E94E7094F
:10082000CD9B0FC080E90E941E028FE491E00E94E0
:100830009C028AE00E94E3098FE491E00E94E709AC
:100840000EC080E90E941E028BE891E00E949C028B
:100850008AE00E94E3098BE891E00E94E709CC9BC3
:100860000CC087E90E941E028DE591E00E949C0267
:1008700088E591E00E94E7090BC087E90E941E020B
:1008800086E991E00E949C0281E991E00E94E709DB
:10089000CB9B0FC080ED0E941E0282E691E00E9479
:1008A0009C028AE00E94E30982E691E00E94E70947
:1008B0000EC080ED0E941E028CE991E00E949C0215
:1008C0008AE00E94E3098CE991E00E94E7098091A7
:1008D0003304863321F090913404983699F484E6F9
:1008E00090E00E94E40287ED0E941E0287EA91E0F8
:1008F0000E949C0282EA91E00E94E7098AE00E943D
:10090000E3090895873311F09D3699F489E190E069
:100910000E94E40287ED0E941E0283EB91E00E9498
:100920009C028EEA91E00E94E7098AE00E94E309B6
:100930000895883311F09C3699F485E090E00E9488
:10094000E40287ED0E941E0281EC91E00E949C026D
:100950008CEB91E00E94E7098AE00E94E309089588
:10096000893311F09F3691F480E090E00E94E40218
:1009700087ED0E941E028CEC91E00E949C0287ECA5
:1009800091E00E94E7098AE00E94E30908950E942D
:10099000F9070E948D060E947E020E9449000E9473
:1009A000D2011092310460E875E280E090E00E948C
:1009B000A5090E94E1020E945A070E94D7020E94E4
:1009C000CA060E9400080E94970680913704843569
:1009D00009F052C1809139048F3609F04DC181E090
:1009E0000E941E0282ED91E00E949C028AE00E9419
:1009F000E3098AE00E94E30983EE91E00E94E7099F
:100A000080EC0E941E0281EF91E00E949C028AE02D
:100A10000E94E30980E092E00E94E70980E90E94D9
:100A20001E028CE092E00E949C028AE00E94E30990
:100A30008CE192E00E94E70980ED0E941E0289E2AB
:100A400092E00E949C028AE00E94E3098AE392E01D
:100A50000E94E7098AE00E94E30988E492E00E948C
:100A6000E7090E94970680913104813029F40E94A1
:100A7000D7018093360404C00E94DA0980933604BB
:100A8000809136048F3221F4909137049435F1F03F
:100A9000883721F4909137049435C1F08D3221F4D8
:100AA00090913704943591F08B3221F49091370472
:100AB000943561F08D3321F490913104992331F014
:100AC000833479F690913104913059F68F3209F5DB
:100AD000809137048435E9F481E00E941E028AE0A7
:100AE0000E94E3098AE00E94E30983EE91E00E94FC
:100AF000E70984E592E00E949C022FEF89E698E1E5
:100B0000215080409040E1F700C0000085E78093CD
:100B1000330480913604883719F580913704843581
:100B2000F9F481E00E941E028AE00E94E3098AE053
:100B30000E94E30980E092E00E94E70981E692E0EA
:100B40000E949C022FEF89E698E12150804090405E
:100B5000E1F700C000000E94BC0085E780933004EC
:100B6000809136048D3209F5809137048435E9F49B
:100B700081E00E941E028AE00E94E3098AE00E944E
:100B8000E3098CE192E00E94E7098CE692E00E9482
:100B90009C022FEF89E698E1215080409040E1F7D8
:100BA00000C0000085E780933204809136048B32C8
:100BB000F1F4809137048435D1F481E00E941E0263
:100BC0008AE00E94E3098AE00E94E3098AE392E056
:100BD0000E94E70988E792E00E949C022FEF89E6D5
:100BE00098E1215080409040E1F700C000008091E2
:100BF00036048D33F1F48091310481111AC081E003
:100C00000E941E028AE00E94E30985E892E00E94A9
:100C1000E70985E892E00E949C022FEF89E698E1BF
:100C2000215080409040E1F700C0000081E08093B7
:100C30003104809136048334F9F480913104813099
:100C4000D9F40E941E028AE00E94E3098AE00E9411
:100C5000E3098BE892E00E94E70984E992E00E94B0
:100C60009C022FEF89E698E1215080409040E1F707
:100C700000C0000010923104809136048F3271F46C
:100C800080913304833421F48FE68093390406C0C5
:100C900081E6809339040E940303F2CF80913604E9
:100CA000883791F480913004833431F48FE6809357
:100CB00039040E94CA0008C081E6809339040E946A
:100CC00073000E944C07EECF809136048D3271F490
:100CD00080913204833421F48FE68093390406C076
:100CE00081E6809339040E947307F2CF8091360425
:100CF0008B3249F480913504863429F481E680935F
:100D000039040E9400089A9B5ECE80913704863495
:100D100009F059CE0E94000856CE8AB382608ABB81
:100D20008BB38D7F8BBB81E38093300408950E9449
:100D300061004D9724F08BB382608BBB08950E94B5
:100D4000610045971CF48BB38D7F8BBB08958BB3EB
:100D50008D7F8BBB089585369105C0F4BC01990F3A
:100D6000880B990B0E94CC0A20E030E048EC52E45A
:100D70000E94220A20E030E04FE753E40E94580B23
:100D80000E949B0A862F0E94A309089580E00E947A
:100D9000A30908950E9461004D9744F08BB38260CF
:100DA0008BBB88E290E00E94AB0608950E94610030
:100DB00045971CF48BB38D7F8BBB08950E949C09D3
:100DC00080ED0E941E0283B5833379F480EC0E948B
:100DD0001E028BE992E00E949C028AE00E94E309D5
:100DE0008BE992E00E94E70947C083B5863679F423
:100DF00080EC0E941E0286EA92E00E949C028AE039
:100E00000E94E30986EA92E00E94E70935C083B5B3
:100E1000893979F480EC0E941E0281EB92E00E94F5
:100E20009C028AE00E94E30981EB92E00E94E709BC
:100E300023C083B58C3C79F480EC0E941E028CEBBD
:100E400092E00E949C028AE00E94E3098CEB92E00F
:100E50000E94E70911C083B58F3F71F480EC0E94B6
:100E60001E0287EC92E00E949C028AE00E94E30945
:100E700087EC92E00E94E7092FEF84E39CE0215089
:100E800080409040E1F700C0000008958BB382607D
:100E90008BBB0E94DE0608950E94610045971CF4FA
:100EA0000E94A70608950E9461004D9714F00E94C9
:100EB0004607089581B3806181BB8BE18EBD83E2DB
:100EC0008FBD83EC99E09BBD8ABD08952DE7829F7D
:100ED000C001112464EB70E00E94C50B63587F4F82
:100EE00079BD68BD08950E94970681E00E941E02A8
:100EF00082ED92E00E949C028AE00E94E3098AE06F
:100F00000E94E3098AE00E94E30982ED92E00E94D8
:100F1000E70980EC0E941E028FED92E00E949C0285
:100F20008AE00E94E3098FED92E00E94E70980E9E0
:100F30000E941E028BEE92E00E949C028AE00E94B8
:100F4000E30989EF92E00E94E7090E9497068091E9
:100F50003104813029F40E94D7018093320404C007
:100F60000E94DA098093320480913204833421F0A4
:100F7000803311F0813349F78334D1F18033D1F4D8
:100F800080E00E94660781E00E941E0288E093E0F4
:100F90000E949C028AE00E94E30980E193E00E94A3
:100FA000E7092FEF81EE94E0215080409040E1F777
:100FB00000C00000809132048133D1F48AE50E94A0
:100FC000660781E00E941E0281E293E00E949C027B
:100FD0008AE00E94E30989E293E00E94E7092FEF8B
:100FE00081EE94E0215080409040E1F700C0000085
:100FF00008958AB384608ABB8BB38B7F8BBB0895C3
:10100000EF92FF920F931F93CF93DF9300D000D006
:101010001F92CDB7DEB780E00E94660780E3809321
:10102000320485B3877F85BB81E00E941E028AE37C
:1010300093E00E949C028AE00E94E3098BE493E023
:101040000E94E70980EC0E941E028FE593E00E9457
:101050009C0280E90E941E0287E693E00E949C02A7
:101060008AE00E94E30983E793E00E94E70980EDAC
:101070000E941E021D8200E010E05EC00E949706E2
:1010800080913104813051F40E94D701E1E0F0E019
:10109000EC0FFD1FE00FF11F808309C00E94DA09E9
:1010A000E1E0F0E0EC0FFD1FE00FF11F8083E1E0D5
:1010B000F0E0EC0FFD1FE00FF11F808190ED980F25
:1010C0009A3060F0833451F08F3241F0883731F03C
:1010D0008D3221F08B3211F08D3381F60E944E0259
:1010E000E1E0F0E0EC0FFD1FE00FF11F80818D3398
:1010F00009F580EC0E941E028FE593E00E949C029D
:101100008EE793E00E949C0280ED0E941E0288E818
:1011100093E00E949C0280ED0E941E0281E0809379
:1011200031048AE00E94E3098DE893E00E94E70918
:101130000FEF1FEF0F5F1F4F043011050CF49ECF10
:10114000E12CF12CD1C066EA73E0CE0101960E9439
:101150000F0C892B39F581E00E941E028BEA93E087
:101160000E949C028AE00E94E30984EB93E00E94C3
:10117000E70984E58093370486E4809335048FE69D
:10118000809339048AE50E94660781E380933204E4
:101190002FEF89E698E1215080409040E1F700C0B0
:1011A0000000A7C022E0E216F104B9F581E00E9438
:1011B0001E028AEC93E00E949C028AE00E94E309EE
:1011C0008AEC93E00E94E70980EC0E941E0285ED04
:1011D00093E00E949C0200E010E009C08AE00E94B7
:1011E000E3098EED93E00E94E7090F5F1F4F0A307D
:1011F0001105A4F385B3886085BB80E00E94660773
:1012000080E38093320484E58093350486E4809300
:10121000370483E6809339046CC081E00E941E028B
:1012200080E80E941E028FEF93E00E949C028AE0F9
:101230000E94E30980E194E00E94E70980EC0E94AB
:101240001E0281E294E00E949C0281E294E00E94EE
:10125000E7098FEFE81AF80AC7010E94BA02C7012E
:101260000E94050A83E294E00E949C0289E294E0D5
:101270000E94E70900E010E034C00E9497068091C8
:101280003104813051F40E94D701E1E0F0E0EC0F2D
:10129000FD1FE00FF11F808309C00E94DA09E1E021
:1012A000F0E0EC0FFD1FE00FF11F8083E1E0F0E0C4
:1012B000EC0FFD1FE00FF11F808190ED980F9A3029
:1012C00060F0833451F08F3241F0883731F08D3245
:1012D00021F08B3211F08D3381F60E944E020F5FA8
:1012E0001F4F043011054CF293E0E916F1040CF4A1
:1012F0002ACF0F900F900F900F900F90DF91CF910A
:101300001F910F91FF90EF9008951F920F920FB6CB
:101310000F9211248F939F9380912E0490912F040C
:10132000019690932F0480932E049F918F910F909C
:101330000FBE0F901F90189581B3806881BB87E620
:1013400085BD14BC089583BD089521B3226021BBDF
:1013500021B32E7F21BB2AB128612AB920B5266886
:1013600020BDDC01CB01880F991FAA1FBB1F880F6E
:10137000991FAA1FBB1F9C01AD01220F331F441FE1
:10138000551F220F331F441F551F60E072E18AE78B
:1013900090E00E94D90BDA01C9010197A109B109B6
:1013A00089B9892F9A2FAB2FBB2780BD08958BB1A8
:1013B000807808950E94D709882321F05F9BFECF93
:1013C0008CB1089508955D9BFECF8CB908950F935D
:1013D0001F93CF93DF938C01C0E0D0E007C0F801EA
:1013E000EC0FFD1F80810E94E3092196F801019016
:1013F0000020E9F73197E01BF10BCE17DF0778F3F8
:10140000DF91CF911F910F910895CF93DF93CDB7C7
:10141000DEB761970FB6F894DEBF0FBECDBF4AE0CE
:10142000BE016F5F7F4F0E94180CCE0101960E9493
:10143000E70961960FB6F894DEBF0FBECDBFDF910E
:10144000CF9108950E94360A0C941E0B0E94170B30
:1014500058F00E94100B40F029F45F3F29F00C94E3
:10146000070B51110C94520B0C940D0B0E942F0B77
:1014700068F39923B1F3552391F3951B550BBB27C3
:10148000AA2762177307840738F09F5F5F4F220F08
:10149000331F441FAA1FA9F335D00E2E3AF0E0E8FF
:1014A00032D091505040E695001CCAF72BD0FE2F49
:1014B00029D0660F771F881FBB1F261737074807DD
:1014C000AB07B0E809F0BB0B802DBF01FF27935895
:1014D0005F4F3AF09E3F510578F00C94070B0C9447
:1014E000520B5F3FE4F3983ED4F38695779567956A
:1014F000B795F7959F5FC9F7880F911D96958795CA
:1015000097F90895E1E0660F771F881FBB1F6217E8
:1015100073078407BA0720F0621B730B840BBA0BA6
:10152000EE1F88F7E09508950E949B0A6894B11118
:101530000C94520B08950E94370B88F09F5798F037
:10154000B92F9927B751B0F0E1F0660F771F881FC8
:10155000991F1AF0BA95C9F714C0B13091F00E94E2
:10156000510BB1E008950C94510B672F782F882709
:10157000B85F39F0B93FCCF3869577956795B39509
:10158000D9F73EF490958095709561957F4F8F4F78
:101590009F4F0895E89409C097FB3EF4909580957D
:1015A000709561957F4F8F4F9F4F9923A9F0F92F29
:1015B00096E9BB279395F695879577956795B795A7
:1015C000F111F8CFFAF4BB0F11F460FF1BC06F5F8D
:1015D0007F4F8F4F9F4F16C0882311F096E911C09F
:1015E000772321F09EE8872F762F05C0662371F0C0
:1015F00096E8862F70E060E02AF09A95660F771FD4
:10160000881FDAF7880F9695879597F9089597F9C7
:101610009F6780E870E060E008959FEF80EC089598
:1016200000240A94161617061806090608950024C1
:101630000A9412161306140605060895092E03943B
:10164000000C11F4882352F0BB0F40F4BF2B11F4AF
:1016500060FF04C06F5F7F4F8F4F9F4F089557FD0E
:101660009058440F551F59F05F3F71F04795880F10
:1016700097FB991F61F09F3F79F0879508951216A7
:1016800013061406551FF2CF4695F1DF08C0161653
:1016900017061806991FF1CF869571056105089404
:1016A0000895E894BB2766277727CB0197F908951B
:1016B0000E946B0B0C941E0B0E94100B38F00E94C2
:1016C000170B20F0952311F00C94070B0C940D0BC5
:1016D00011240C94520B0E942F0B70F3959FC1F3B1
:1016E000950F50E0551F629FF001729FBB27F00DD0
:1016F000B11D639FAA27F00DB11DAA1F649F662725
:10170000B00DA11D661F829F2227B00DA11D621F73
:10171000739FB00DA11D621F839FA00D611D221F2D
:10172000749F3327A00D611D231F849F600D211D11
:10173000822F762F6A2F11249F5750409AF0F1F094
:1017400088234AF0EE0FFF1FBB1F661F771F881FFD
:1017500091505040A9F79E3F510580F00C94070B23
:101760000C94520B5F3FE4F3983ED4F38695779543
:101770006795B795F795E7959F5FC1F7FE2B880FA3
:10178000911D9695879597F9089597FB072E16F466
:10179000009407D077FD09D00E94FB0B07FC05D011
:1017A0003EF4909581959F4F0895709561957F4F78
:1017B0000895A1E21A2EAA1BBB1BFD010DC0AA1F92
:1017C000BB1FEE1FFF1FA217B307E407F50720F0AA
:1017D000A21BB30BE40BF50B661F771F881F991F25
:1017E0001A9469F760957095809590959B01AC016E
:1017F000BD01CF010895AA1BBB1B51E107C0AA1F61
:10180000BB1FA617B70710F0A61BB70B881F991FA1
:101810005A95A9F780959095BC01CD010895FB01DB
:10182000DC018D91019080190110D9F3990B089575
:10183000BB274A3031F4992322F4BDE2909581957B
:101840009F4F0C94240CBB27FB015527AA27880F18
:10185000991FAA1FA41710F0A41B83955051B9F724
:10186000A05DAA3308F0A95DA193009779F7B111A3
:10187000B1931192CB010C943D0CDC01FC01672F5C
:1018800071917723E1F7329704C07C916D93708357
:0E1890006291AE17BF07C8F30895F894FFCF1A
:10189E003738392F343536783132332D43303D2BAE
:1018AE0074656D703A002043002063005245542841
:1018BE0043293A0052657475726E284329004661B9
:1018CE006E537065656428312D35293F0046616E73
:1018DE00537065656428312D35293F3A0046616E97
:1018EE00537065656428312D35293A2031202E2E0E
:1018FE002E0046616E537065656428312D35293A88
:10190E002032202E2E2E0046616E5370656564289F
:10191E00312D35293A2033202E2E2E0046616E535E
:10192E007065656428312D35293A2034202E2E2EEF
:10193E000046616E537065656428312D35293A2055
:10194E0035202E2E2E004C696768747328726574CC
:10195E00206279204329004C6967687473283D2002
:10196E00746F20726566726573682900313A6F6E06
:10197E0000313A6F6E2020202020323A6F6E0033F5
:10198E003A6F6E00333A6F6E2020202020343A6F6B
:10199E006E00353A6F6E00353A6F6E202020202093
:1019AE00363A004C696768747300313A6F666600A8
:1019BE002020202020323A6F666600333A6F66662A
:1019CE00002020202020343A6F666600353A6F667C
:1019DE0066002020202020363A48696768002020C3
:1019EE00202020363A4D656469756D002020202038
:1019FE0020363A4C6F77002020202020363A6F6632
:101A0E0066004C69676874436F6E74726F6C282F32
:101A1E00293A004C6967687420436F6E74726F6C5C
:101A2E000046616E436F6E74726F6C2878293B00AE
:101A3E0046616E20436F6E74726F6C00446F6F72EE
:101A4E00436F6E74726F6C282D293A00446F6F725B
:101A5E0020436F6E74726F6C005365637572697498
:101A6E00794D6F6465282B293A0053656375726949
:101A7E007479204D6F646500283D2920666F7220B1
:101A8E004B503A004C69676874436F6E74726F6C9A
:101A9E000046616E436F6E74726F6C00446F6F72AE
:101AAE00436F6E74726F6C005365637572697479EF
:101ABE004D6F6465004B50204F6E0050686F6E6521
:101ACE00204F6E004B50204F66660046616E53707D
:101ADE006565643A310046616E53706565643A32ED
:101AEE000046616E53706565643A330046616E530D
:101AFE00706565643A340046616E53706565643A8C
:101B0E003500302E436C6F736520446F6F72003159
:101B1E002E4F70656E20446F6F7200284320746FD5
:101B2E002052657475726E2900284320746F2052FE
:101B3E00657475726E293A00436C6F73696E670037
:101B4E00436C6F73696E672074686520446F6F72A3
:101B5E00004F70656E696E67004F70656E696E67D7
:101B6E002074686520446F6F720050726573732025
:101B7E00283D2920746F207573650050726573734C
:101B8E0020283D2920746F20757365204B50004B23
:101B9E0065797061643A00456E7465722070696E85
:101BAE003A2000456E7465722050494E3A004B50F3
:101BBE0020757361626C65002020202000456E74D4
:101BCE0065722050494E207573696E67204B65799A
:101BDE007061642021003132333400436F727265BC
:101BEE0063742100436F72726563742C2057656CA9
:101BFE00636F6D65203A2920210057524F4E4728BA
:101C0E00332F3329005741524E494E47210021218F
:101C1E00205741524E494E4720212120504F5353B9
:101C2E0049424C452042524541434820212100570C
:101C3E00726F6E672C54727920616761696E200035
:101C4E0057726F6E672C2054727920616761696ECE
:0E1C5E000028002F33293A20002F33293A00A6
:00000001FF
